{
  "contractName": "ComplexStorage",
  "abi": [
    {
      "inputs": [],
      "payable": false,
      "stateMutability": "nonpayable",
      "type": "constructor"
    },
    {
      "constant": true,
      "inputs": [],
      "name": "constuint",
      "outputs": [
        {
          "internalType": "uint256",
          "name": "",
          "type": "uint256"
        }
      ],
      "payable": false,
      "stateMutability": "view",
      "type": "function"
    },
    {
      "constant": true,
      "inputs": [
        {
          "internalType": "uint256",
          "name": "",
          "type": "uint256"
        }
      ],
      "name": "deviceDataArray",
      "outputs": [
        {
          "internalType": "string",
          "name": "Name",
          "type": "string"
        },
        {
          "internalType": "string",
          "name": "Date",
          "type": "string"
        },
        {
          "internalType": "string",
          "name": "Uri",
          "type": "string"
        }
      ],
      "payable": false,
      "stateMutability": "view",
      "type": "function"
    },
    {
      "constant": true,
      "inputs": [],
      "name": "investmentsDeadlineTimeStamp",
      "outputs": [
        {
          "internalType": "uint32",
          "name": "",
          "type": "uint32"
        }
      ],
      "payable": false,
      "stateMutability": "view",
      "type": "function"
    },
    {
      "constant": true,
      "inputs": [],
      "name": "investmentsLimit",
      "outputs": [
        {
          "internalType": "uint128",
          "name": "",
          "type": "uint128"
        }
      ],
      "payable": false,
      "stateMutability": "view",
      "type": "function"
    },
    {
      "constant": true,
      "inputs": [],
      "name": "singleDD",
      "outputs": [
        {
          "internalType": "string",
          "name": "Name",
          "type": "string"
        },
        {
          "internalType": "string",
          "name": "Date",
          "type": "string"
        },
        {
          "internalType": "string",
          "name": "Uri",
          "type": "string"
        }
      ],
      "payable": false,
      "stateMutability": "view",
      "type": "function"
    },
    {
      "constant": true,
      "inputs": [],
      "name": "storeduint1",
      "outputs": [
        {
          "internalType": "uint256",
          "name": "",
          "type": "uint256"
        }
      ],
      "payable": false,
      "stateMutability": "view",
      "type": "function"
    },
    {
      "constant": true,
      "inputs": [],
      "name": "string1",
      "outputs": [
        {
          "internalType": "bytes16",
          "name": "",
          "type": "bytes16"
        }
      ],
      "payable": false,
      "stateMutability": "view",
      "type": "function"
    },
    {
      "constant": true,
      "inputs": [],
      "name": "string2",
      "outputs": [
        {
          "internalType": "bytes32",
          "name": "",
          "type": "bytes32"
        }
      ],
      "payable": false,
      "stateMutability": "view",
      "type": "function"
    },
    {
      "constant": true,
      "inputs": [],
      "name": "string3",
      "outputs": [
        {
          "internalType": "string",
          "name": "",
          "type": "string"
        }
      ],
      "payable": false,
      "stateMutability": "view",
      "type": "function"
    },
    {
      "constant": true,
      "inputs": [
        {
          "internalType": "uint256",
          "name": "",
          "type": "uint256"
        }
      ],
      "name": "uintarray",
      "outputs": [
        {
          "internalType": "uint256",
          "name": "",
          "type": "uint256"
        }
      ],
      "payable": false,
      "stateMutability": "view",
      "type": "function"
    }
  ],
  "bytecode": "0x6080604052600f60005561429f600160006101000a8154816fffffffffffffffffffffffffffffffff02191690836fffffffffffffffffffffffffffffffff16021790555042600160106101000a81548163ffffffff021916908363ffffffff1602179055507f726172652d70726573616c653100000000000000000000000000000000000000600260006101000a8154816fffffffffffffffffffffffffffffffff021916908360801c02179055507f657069632d70726573616c6531000000000000000000000000000000000000006003556040518060400160405280601581526020017f6c65747320737472696e6720736f6d657468696e6700000000000000000000008152506004908051906020019062000120929190620007a3565b503480156200012e57600080fd5b50600073bccc714d56bc0da0fd33d96d2a87b680dd6d0df69050600073aee905fdd3ed851e48d22059575b9f4245a82b0490506058600560008473ffffffffffffffffffffffffffffffffffffffff1673ffffffffffffffffffffffffffffffffffffffff168152602001908152602001600020819055506063600560008373ffffffffffffffffffffffffffffffffffffffff1673ffffffffffffffffffffffffffffffffffffffff1681526020019081526020016000208190555060405180606001604052806040518060400160405280600d81526020017f726172652d70726573616c65310000000000000000000000000000000000000081525081526020016040518060400160405280600881526020017f32303231303630360000000000000000000000000000000000000000000000008152508152602001604051806080016040528060538152602001620013f260539139815250600660008473ffffffffffffffffffffffffffffffffffffffff1673ffffffffffffffffffffffffffffffffffffffff1681526020019081526020016000206000820151816000019080519060200190620002e69291906200082a565b506020820151816001019080519060200190620003059291906200082a565b506040820151816002019080519060200190620003249291906200082a565b5090505060405180606001604052806040518060400160405280600d81526020017f657069632d70726573616c65310000000000000000000000000000000000000081525081526020016040518060400160405280600881526020017f32303231303630360000000000000000000000000000000000000000000000008152508152602001604051806080016040528060538152602001620013f260539139815250600660008373ffffffffffffffffffffffffffffffffffffffff1673ffffffffffffffffffffffffffffffffffffffff1681526020019081526020016000206000820151816000019080519060200190620004239291906200082a565b506020820151816001019080519060200190620004429291906200082a565b506040820151816002019080519060200190620004619291906200082a565b5090505060405180606001604052806040518060400160405280601281526020017f4c6567656e646172792d70726573616c6531000000000000000000000000000081525081526020016040518060400160405280600881526020017f32303231303630360000000000000000000000000000000000000000000000008152508152602001604051806080016040528060538152602001620013f26053913981525060096000820151816000019080519060200190620005239291906200082a565b506020820151816001019080519060200190620005429291906200082a565b506040820151816002019080519060200190620005619291906200082a565b509050506007611f409080600181540180825580915050906001820390600052602060002001600090919290919091505550600761232890806001815401808255809150509060018203906000526020600020016000909192909190915055506008600660008473ffffffffffffffffffffffffffffffffffffffff1673ffffffffffffffffffffffffffffffffffffffff168152602001908152602001600020908060018154018082558091505090600182039060005260206000209060030201600090919290919091506000820181600001908054600181600116156101000203166002900462000656929190620008b1565b506001820181600101908054600181600116156101000203166002900462000680929190620008b1565b5060028201816002019080546001816001161561010002031660029004620006aa929190620008b1565b505050506008600660008373ffffffffffffffffffffffffffffffffffffffff1673ffffffffffffffffffffffffffffffffffffffff168152602001908152602001600020908060018154018082558091505090600182039060005260206000209060030201600090919290919091506000820181600001908054600181600116156101000203166002900462000743929190620008b1565b50600182018160010190805460018160011615610100020316600290046200076d929190620008b1565b506002820181600201908054600181600116156101000203166002900462000797929190620008b1565b50505050505062000967565b828054600181600116156101000203166002900490600052602060002090601f016020900481019282601f10620007e657805160ff191683800117855562000817565b8280016001018555821562000817579182015b8281111562000816578251825591602001919060010190620007f9565b5b5090506200082691906200093f565b5090565b828054600181600116156101000203166002900490600052602060002090601f016020900481019282601f106200086d57805160ff19168380011785556200089e565b828001600101855582156200089e579182015b828111156200089d57825182559160200191906001019062000880565b5b509050620008ad91906200093f565b5090565b828054600181600116156101000203166002900490600052602060002090601f016020900481019282601f10620008ec57805485556200092c565b828001600101855582156200092c57600052602060002091601f016020900482015b828111156200092b5782548255916001019190600101906200090e565b5b5090506200093b91906200093f565b5090565b6200096491905b808211156200096057600081600090555060010162000946565b5090565b90565b610a7b80620009776000396000f3fe608060405234801561001057600080fd5b506004361061009e5760003560e01c8063927558601161006657806392755860146103fb57806397ba784f1461047e578063a7b2cfca1461049c578063df4fddf5146104e0578063eec65f291461050a5761009e565b80630ca0aa79146100a357806311f9c74d146100c157806328a20b5e146100df5780636c0c1bcf1461023a57806384eeda561461027c575b600080fd5b6100ab61054c565b6040518082815260200191505060405180910390f35b6100c9610552565b6040518082815260200191505060405180910390f35b6100e7610558565b60405180806020018060200180602001848103845287818151815260200191508051906020019080838360005b8381101561012f578082015181840152602081019050610114565b50505050905090810190601f16801561015c5780820380516001836020036101000a031916815260200191505b50848103835286818151815260200191508051906020019080838360005b8381101561019557808201518184015260208101905061017a565b50505050905090810190601f1680156101c25780820380516001836020036101000a031916815260200191505b50848103825285818151815260200191508051906020019080838360005b838110156101fb5780820151818401526020810190506101e0565b50505050905090810190601f1680156102285780820380516001836020036101000a031916815260200191505b50965050505050505060405180910390f35b6102666004803603602081101561025057600080fd5b8101908080359060200190929190505050610738565b6040518082815260200191505060405180910390f35b6102a86004803603602081101561029257600080fd5b8101908080359060200190929190505050610759565b60405180806020018060200180602001848103845287818151815260200191508051906020019080838360005b838110156102f05780820151818401526020810190506102d5565b50505050905090810190601f16801561031d5780820380516001836020036101000a031916815260200191505b50848103835286818151815260200191508051906020019080838360005b8381101561035657808201518184015260208101905061033b565b50505050905090810190601f1680156103835780820380516001836020036101000a031916815260200191505b50848103825285818151815260200191508051906020019080838360005b838110156103bc5780820151818401526020810190506103a1565b50505050905090810190601f1680156103e95780820380516001836020036101000a031916815260200191505b50965050505050505060405180910390f35b610403610958565b6040518080602001828103825283818151815260200191508051906020019080838360005b83811015610443578082015181840152602081019050610428565b50505050905090810190601f1680156104705780820380516001836020036101000a031916815260200191505b509250505060405180910390f35b6104866109f6565b6040518082815260200191505060405180910390f35b6104a46109fb565b60405180826fffffffffffffffffffffffffffffffff19166fffffffffffffffffffffffffffffffff1916815260200191505060405180910390f35b6104e8610a0e565b604051808263ffffffff1663ffffffff16815260200191505060405180910390f35b610512610a24565b60405180826fffffffffffffffffffffffffffffffff166fffffffffffffffffffffffffffffffff16815260200191505060405180910390f35b60035481565b60005481565b6009806000018054600181600116156101000203166002900480601f0160208091040260200160405190810160405280929190818152602001828054600181600116156101000203166002900480156105f25780601f106105c7576101008083540402835291602001916105f2565b820191906000526020600020905b8154815290600101906020018083116105d557829003601f168201915b505050505090806001018054600181600116156101000203166002900480601f0160208091040260200160405190810160405280929190818152602001828054600181600116156101000203166002900480156106905780601f1061066557610100808354040283529160200191610690565b820191906000526020600020905b81548152906001019060200180831161067357829003601f168201915b505050505090806002018054600181600116156101000203166002900480601f01602080910402602001604051908101604052809291908181526020018280546001816001161561010002031660029004801561072e5780601f106107035761010080835404028352916020019161072e565b820191906000526020600020905b81548152906001019060200180831161071157829003601f168201915b5050505050905083565b6007818154811061074557fe5b906000526020600020016000915090505481565b6008818154811061076657fe5b9060005260206000209060030201600091509050806000018054600181600116156101000203166002900480601f0160208091040260200160405190810160405280929190818152602001828054600181600116156101000203166002900480156108125780601f106107e757610100808354040283529160200191610812565b820191906000526020600020905b8154815290600101906020018083116107f557829003601f168201915b505050505090806001018054600181600116156101000203166002900480601f0160208091040260200160405190810160405280929190818152602001828054600181600116156101000203166002900480156108b05780601f10610885576101008083540402835291602001916108b0565b820191906000526020600020905b81548152906001019060200180831161089357829003601f168201915b505050505090806002018054600181600116156101000203166002900480601f01602080910402602001604051908101604052809291908181526020018280546001816001161561010002031660029004801561094e5780601f106109235761010080835404028352916020019161094e565b820191906000526020600020905b81548152906001019060200180831161093157829003601f168201915b5050505050905083565b60048054600181600116156101000203166002900480601f0160208091040260200160405190810160405280929190818152602001828054600181600116156101000203166002900480156109ee5780601f106109c3576101008083540402835291602001916109ee565b820191906000526020600020905b8154815290600101906020018083116109d157829003601f168201915b505050505081565b601081565b600260009054906101000a900460801b81565b600160109054906101000a900463ffffffff1681565b600160009054906101000a90046fffffffffffffffffffffffffffffffff168156fea265627a7a7231582050d4796ef2a7f8300fec1f04f6d6d5fed190b3b5246fe33d1b727507735fe43e64736f6c6343000510003268747470733a2f2f652d736572656e6974792e66722f77702d636f6e74656e742f75706c6f6164732f323032302f30352f4c6f676f2d452d536572656e6974792d65313539303432333530363432382e706e67",
  "source": "// SPDX-License-Identifier: MIT\npragma solidity >=0.4.21 <0.7.0;\n\ncontract ComplexStorage {\n    uint public storeduint1 = 15;\n    uint public constant constuint = 16;\n    uint128 public investmentsLimit = 17055;\n    uint32 public investmentsDeadlineTimeStamp = uint32(now);\n\n    bytes16 public string1 = \"rare-presale1\";\n    bytes32 public string2 = \"epic-presale1\";\n    string public string3 = \"lets string something\";\n\n    mapping (address => uint) uints1;\n    mapping (address => DeviceData) structs1;\n\n    uint[] public uintarray;\n    DeviceData[] public deviceDataArray;\n    DeviceData public singleDD;\n\n    struct DeviceData {\n        string Name;\n        string deviceYear;\n        string batteryWearLevel;\n    }\n\n    constructor() public {\n        address address1 = 0xbCcc714d56bc0da0fd33d96d2a87b680dD6D0DF6;\n        address address2 = 0xaee905FdD3ED851e48d22059575b9F4245A82B04;\n\n        uints1[address1] = 88;\n        uints1[address2] = 99;\n\n        structs1[address1] = DeviceData(\"rare-presale1\", \"20210606\", \"https://e-serenity.fr/wp-content/uploads/2020/05/Logo-E-Serenity-e1590423506428.png\");\n        structs1[address2] = DeviceData(\"epic-presale1\", \"20210606\", \"https://e-serenity.fr/wp-content/uploads/2020/05/Logo-E-Serenity-e1590423506428.png\");\n        singleDD = DeviceData(\"Legendary-presale1\", \"20210606\", \"https://e-serenity.fr/wp-content/uploads/2020/05/Logo-E-Serenity-e1590423506428.png\");\n\n        uintarray.push(8000);\n        uintarray.push(9000);\n\n        deviceDataArray.push(structs1[address1]);\n        deviceDataArray.push(structs1[address2]);\n    }\n}\n",
  "sourcePath": "/e-serenity/MyNFT/contracts/ComplexStorage.sol",
  "compiler": {
    "name": "solc",
    "version": "0.5.16+commit.9c3226ce.Emscripten.clang"
  },
  "schemaVersion": "3.4.1",
  "updatedAt": "2021-06-08T21:41:56.585Z",
  "networkType": "ethereum",
  "devdoc": {
    "methods": {}
  },
  "userdoc": {
    "methods": {}
  }
}